{"abi":[{"type":"function","name":"verifyProof","inputs":[{"name":"proof","type":"bytes","internalType":"bytes"},{"name":"instances","type":"uint256[]","internalType":"uint256[]"}],"outputs":[{"name":"","type":"bool","internalType":"bool"}],"stateMutability":"nonpayable"}],"bytecode":{"object":"0x6080604052348015600e575f5ffd5b50613c758061001c5f395ff3fe608060405234801561000f575f5ffd5b5060043610610029575f3560e01c80631e8e1e131461002d575b5f5ffd5b61004061003b3660046139fb565b610054565b604051901515815260200160405180910390f35b5f6102c9565b5f5f5f8435602086013588821086169450888110851694508860038a8b858609850908898283099289526020890191909152149290921696604094850196509390940193505050565b5f9182209283068152919052602090810191565b600160205360215f90812092830682529190915260200190565b5f838351602085015b60208703811015610109575f516020613b605f395f51905f5281518309808452602093840193909250016100da565b5f516020613b605f395f51905f52815183099150602083526020808401526020604084015281606084015260025f516020613b605f395f51905f520360808401525f516020613b605f395f51905f5260a084015260208360c08560055afa851693508251915085602081016020850394505b828110156101bd575f516020613b605f395f51905f52855185095f516020613b605f395f51905f5284518609908452601f19958601959094509092019161017b565b5f516020613b605f395f51905f528151850994505f516020613b605f395f51905f528251850994909152929092525090949350505050565b81604052826060525f60405f60805f60065afa9091169392505050565b816040525f60405f60605f60075afa90911692915050565b8160c0528260e0525f6040608080608060065afa9091169392505050565b8160c0525f604060806060608060075afa90911692915050565b815f52826020526109405160405261096051606052610980516080526109a05160a0528360c0528460e0526109c051610100526109e05161012052610a005161014052610a2051610160525f60205f6101805f60085afa5f51921690911695945050505050565b5f516020613c205f395f51905f526107a0819052602a6107c08190525f919091527f30644e72e131a029b85045b68181585d97816a916871ca8d3c208c16d87cfd47905f516020613b605f395f51905f5290848114610ec08814166001169060208761054081015b808210156103545781358084528611949094169360209283019290910190610331565b50508991506110806101c083015b80841015610381576103768784868861005a565b945094509450610362565b5061038d8583836100a3565b9250905061018083015b808410156103b6576103ab8784868861005a565b945094509450610397565b506103c28583836100a3565b925090506103d085826100b7565b905061028083015b808410156103f7576103ec8784868861005a565b9450945094506103d8565b506104038583836100a3565b9250905061010083015b8084101561042c576104218784868861005a565b94509450945061040d565b506104388583836100a3565b9250905061078083015b808410156104655783358084528611949094169360209384019390920191610442565b506104718583836100a3565b9250905061047f85826100b7565b905061048d8683858761005a565b93509350935061049e8583836100a3565b92509050506104af8582848661005a565b92509250925050505f516020613c205f395f51905f526107a052602a6107c05260186107e0527f30644e427ce32d4886b01bfe313ba1dba6db8b2045d128178a7164500e0a6c11610800527f1951441010b2b95a6e47a6075066a50a036f5ba978c050f2821df86636c0facb610820527f26501ebfe559ea5826f023d3e76e4b66f170cd940408eb5590a4075c80b498d6610840527f20669a4af88d28096b76c1e00c7eb94022b5eeb63400055aa63bd19ae7ede714610860525f610880525f6108a0525f6108c0525f6108e0526001610900526002610920527f198e9393920d483a7260bfb731fb5d25f1aa493335a9e71297e485b7aef312c2610940527f1800deef121f1e76426a00665e5c4479674322d4f75edadd46debd5cd992f6ed610960527f090689d0585ff075ec9e99ad690c3395bc4b313370b38ef355acdadcd122975b610980527f12c85ea5db8c6deb4aab71808dcb408fe3d1e7690c43d37b4ce6cc0166fa7daa6109a0527f186282957db913abd99f91db59fe69922e95040603ef44c0bd7aa3adeef8f5ac6109c0527f17944351223333f260ddc3b4af45191b856689eda9eab5cbcddbbe570ce860d26109e0527f06d971ff4a7467c3ec596ed6efc674572e32fd6f52b721f97e35b0b3d3546753610a00527f06ecdb9f9567f59ed2eee36e1e1d58797fd13cc97fafc2910f5e8a12f202fa9a610a20527f1759640ed3b210993b341f5ba77bf873807ccf50aab4bbd344b8fecad2fafdf3610a40527f2384b2f92ea8b5a66dbe5c7a8b94ec90511aff54fe4b1ca3c7f43b4e4e79e77d610a60527f0b1b5744aa5fb262504e0c6a32b791c32f5aab01fc28ee3f5422035e653f8768610a80527f19eae87867d188aa72205b5e5fd79af11942bc50c68130fa09f97d1f0ac84c8a610aa0527f1b543c469ba50c1ad1826c847da74854978723659f967bbfb384f04eb12e0bf2610ac0527f1dbaad175c9f4e9f3de8465308c16c9497228a8ce603c1c9dbd8ff4f0e9d0597610ae0527f2c7a4b7a467d369ee107ebffbda2fa890f602f175a80a83ce64715bf0a96463e610b00527f07f6cf84b8d9534cec90f54236e13a4e09022f5da259a392b986bc2d6a5bf635610b20527f1f5886bc0558717e3351d15f2c1b30228f6c35f545b6b407abf090c018f4b9e1610b40527f2ff6a0891f8a0e34af354e0db56370db4ddba77b212520f4d7a0c0d77116f3f4610b60525f516020613ba05f395f51905f52610b80525f516020613b205f395f51905f52610ba0525f516020613ba05f395f51905f52610bc0525f516020613b205f395f51905f52610be0525f516020613c005f395f51905f52610c00525f516020613ac05f395f51905f52610c20525f516020613c005f395f51905f52610c40525f516020613ac05f395f51905f52610c60525f516020613be05f395f51905f52610c80525f516020613ae05f395f51905f52610ca0525f516020613be05f395f51905f52610cc0525f516020613ae05f395f51905f52610ce0527eef15961bfcd48b53b7a2631c235e01d68719be755107297c3105af70513c10610d00527f1e20550402df9db9ec1c0cc5582d9425601fb8d9eea83de527aa348a5d78d9b0610d20527f097f0263a22d8d017edcc3e17add11e8815e9c0018848ce0427f8d6a0aa06bb1610d40527f0a8bb64729448aeb03e6a7f5b4b8f59b05b4b1ecc156c8f320bc9de0c28ea911610d60527f1cd985a97efb2e9ad7cd00553c2e3e5ec8ee45e56331ffc76e9e7b4f27910c10610d80527f169c6c48b7f2f816a56efb6f885303387c2d5b6f90b0ab136f23eaa7a4bda334610da0525f610dc0525f610de0525f610e00525f610e20527f1d67546c2e35cb0e4c9ccfab53d1f4b5a3870aabd62325175c63d56223bc2e6e610e40527f19b5ccabc0405e0d546b2e35a2cca051d26ca08ed833b755e83957db23d899fd610e60527f0e3285dead74d892fb141236550534243a55a57233467f221bb675e17cd5542b610e80527f2bacc506c020df1a9da85d70dbbb240058a423c652acddec296c738028905ef9610ea0527f09456700395c3eac4e8272b0055154e8b8a2a7cc86c7906ef50cd25250939e23610ec0527f0e891abef75b64837d3c8a7fe68a81dcf1fa48513af9db8e7036442454fa3ab7610ee0527f2841b5f116bae5a6f457651dcf5e9ba8adabf5c8094f02ce325ce33a0809f08e610f00527f286eb49ef2f54e3b8f8ac9e271b7f8359e729f4f4ea7971cd5dacd5c535eebf4610f20527f22645f168273dc79a1ed1fb1e564835d20ffb66a1684d26dbb819b16c0d46611610f40527f1effb4ea318c22cdbddb6f7f40dd12888fa9e86f3f17f64d394a1d4fda6d7f18610f60527f1ee2718ec8886fdab8479b47e611fb94801622b5e5f9acea18f8e2a464f1cfda610f80527f03a106651fe02a4e8c1133281073f58cef1bbb38a1e2a3890353f778360986dd610fa0527f0fdbb60ff734927dcab6aeb1b2afe82833dc20daca251b856e09f1d5966c9b58610fc0527f176fa6109f9110b7ca6c7517f7a7d01042cf3e2634520ddbed61651e63e11bcf610fe0527f2a7ed13b20ca7cd8af5a03bf174016c7ebf0c6d69f6efc33796c7ea5356fd261611000527f1bf249ae3f38ca94c7ed7f00d65222f217c8fab28e23c682b60083d0f832ab3c611020527f1a9da1add67b69948f6f12272d490201de6523e657209c35b1e3ea6d26b78fad611040527f2f8c1949d256ce1b15120b33f785a9409233afa8ee80b03895206fb462106d55611060526108805115610d49576108c0516108e05160206108a0510288016020830260028102600382028335838501358386013583870135896020028801895b818a1015610d005760208a0199508935811b86019550888a0135811b85019450878a0135811b84019350868a0135811b830192508a81019050610cc2565b50508c60038e8f8788098709088d848509148b169a508c60038e8f8586098509088d828309148b169a508361118052826111a052816111c052806111e052505050505050505050505b80610d52575f5ffd5b6107e051925061110051805f5b85811015610d7557848283099150600101610d5f565b5061082051945061120060066107c0510160200281016107c051610d97576020015b610860515b81831015610dbd578681880386088352868882099050602083019250610d9c565b50856001870384089350838152610dda60208201611200876100d1565b94506112009150856108005185099350610860515b81831015610e125786878285510986098352868882099050602083019250610def565b5061122051965061124093506112c091505b81841015610e3e5785845188089650602084019350610e24565b5f9150896107c05160200281015b80821015610e70578788833588510985089350602082019150602086019550610e4c565b50505161120080516112c0519490915261122091909152611240526112609590955261128052506112a0929092526110e0515f92906109843560025f516020613b605f395f51905f528281039081830891505f516020613b605f395f51905f528284099250600391505f516020613b605f395f51905f528183089150505f516020613b605f395f51905f528183099150506107c43561074435610784355f516020613b605f395f51905f528183085f516020613b605f395f51905f52908103925090508183089150505f516020613b605f395f51905f528183099550506109a435905060025f516020613b605f395f51905f528281039081830891505f516020613b605f395f51905f528284099250600391505f516020613b605f395f51905f528183089150505f516020613b605f395f51905f528183099150506107e435610764356107a4355f516020613b605f395f51905f528183085f516020613b605f395f51905f52908103925090508183089150505f516020613b605f395f51905f5281830991505083818584880908945050610984356001815f516020613b605f395f51905f52035f516020613b605f395f51905f5281830891505f516020613b605f395f51905f528284099250600291505f516020613b605f395f51905f528183089150505f516020613b605f395f51905f528183099150506107c43561074435610784355f516020613b605f395f51905f528183095f516020613b605f395f51905f52908103925090508183089150505f516020613b605f395f51905f52818309915050838185848809089450506109a4356001815f516020613b605f395f51905f52035f516020613b605f395f51905f5281830891505f516020613b605f395f51905f528284099250600291505f516020613b605f395f51905f528183089150505f516020613b605f395f51905f528183099150506107e435610764356107a4355f516020613b605f395f51905f528183095f516020613b605f395f51905f52908103925090508183089150505f516020613b605f395f51905f5281830991505083818584880908945050610984356001815f516020613b605f395f51905f52035f516020613b605f395f51905f5281830891505f516020613b605f395f51905f528284099250600391505f516020613b605f395f51905f528183089150505f516020613b605f395f51905f528183099150506107c43561074435610784355f516020613b605f395f51905f52908103908183085f516020613b605f395f51905f52908103925090508183089150505f516020613b605f395f51905f52818309915050838185848809089450506109a4356001815f516020613b605f395f51905f52035f516020613b605f395f51905f5281830891505f516020613b605f395f51905f528284099250600391505f516020613b605f395f51905f528183089150505f516020613b605f395f51905f528183099150506107e435610764356107a4355f516020613b605f395f51905f52908103908183085f516020613b605f395f51905f52908103925090508183089150505f516020613b605f395f51905f52818309915050838185848809089450506109c4356001815f516020613b605f395f51905f52035f516020613b605f395f51905f5281830891505f516020613b605f395f51905f528284099250600391505f516020613b605f395f51905f528183089150505f516020613b605f395f51905f528183099150506107c435610804355f61074435610784355f516020613b605f395f51905f528183099150505f516020613b605f395f51905f52818308915050610764356107a4355f516020613b605f395f51905f528183099150505f516020613b605f395f51905f528183089150505f516020613b605f395f51905f528183085f516020613b605f395f51905f52908103925090508183089150505f516020613b605f395f51905f52818309915050838185848809089450506109c4356002815f516020613b605f395f51905f52035f516020613b605f395f51905f5281830891505f516020613b605f395f51905f528284099250600391505f516020613b605f395f51905f528183089150505f516020613b605f395f51905f528183099150506107c4355f61074435610784355f516020613b605f395f51905f528183099150505f516020613b605f395f51905f52818308915050610764356107a4355f516020613b605f395f51905f528183099150505f516020613b605f395f51905f528183085f516020613b605f395f51905f52908103925090508183089150505f516020613b605f395f51905f52818309915050838185848809089450506109c4356001815f516020613b605f395f51905f52035f516020613b605f395f51905f528183085f516020613b605f395f51905f5281850993505060025f516020613b605f395f51905f528282089150505f516020613b605f395f51905f528184099250506107c435610784355f516020613b605f395f51905f528184099250506107a4355f516020613b605f395f51905f528184095f516020613b605f395f51905f52908103935090508282089150505f516020613b605f395f51905f52818309915050838185848809089450506109e4356002815f516020613b605f395f51905f52035f516020613b605f395f51905f528183089150505f516020613b605f395f51905f528183099150506107c435610804356001610784355f516020613b605f395f51905f528183099150506107a4355f516020613b605f395f51905f528183099150505f516020613b605f395f51905f528183095f516020613b605f395f51905f52908103925090508183089150505f516020613b605f395f51905f5281830991505083818584880908945050610a04356107c4355f610784355f516020613b605f395f51905f528183089150506107a4355f516020613b605f395f51905f528183085f516020613b605f395f51905f52908103925090508183089150505f516020613b605f395f51905f52818309915050838185848809089450506109e4356001815f516020613b605f395f51905f52035f516020613b605f395f51905f528183089150505f516020613b605f395f51905f528183099150506107c435610804355f610784355f516020613b605f395f51905f528183089150506107a4355f516020613b605f395f51905f528183089150505f516020613b605f395f51905f528183085f516020613b605f395f51905f52908103925090508183089150505f516020613b605f395f51905f52818309915050838185848809089450506108c4355f5f516020613b605f395f51905f52818309915050838185848809089450506108e4355f5f516020613b605f395f51905f5281830991505083818584880908945050610904355f5f516020613b605f395f51905f5281830991505083818584880908945050610924355f5f516020613b605f395f51905f5281830991505083818584880908945050610944355f5f516020613b605f395f51905f5281830991505083818584880908945050610964355f5f516020613b605f395f51905f5281830991505083818584880908945050611280515f516020613b605f395f51905f5280610b643583095f516020613b605f395f51905f52038208905083818584880908945050610c24355f516020613b605f395f51905f5280825f516020613b605f395f51905f52035f516020613b605f395f51905f528485090861124051099050838185848809089450505f516020613b605f395f51905f5280610ba4355f516020613b605f395f51905f5203610bc435086112805109838185848809089450505f516020613b605f395f51905f5280610c04355f516020613b605f395f51905f5203610c2435086112805109838185848809089450506110c0516110a051610b8435610b64355f516020613b605f395f51905f5280855f516020613b605f395f51905f5280610a44358809610724350808830991505f516020613b605f395f51905f5280855f516020613b605f395f51905f5280610a64358809610744350808830991505f516020613b605f395f51905f5280855f516020613b605f395f51905f5280610a84358809610764350808830991505f516020613b605f395f51905f526111005184095f525f516020613b605f395f51905f5280855f516020613b605f395f51905f525f51610724350808820990505f516020613b605f395f51905f525f516020613bc05f395f51905f525f51095f525f516020613b605f395f51905f5280855f516020613b605f395f51905f525f51610744350808820990505f516020613b605f395f51905f525f516020613bc05f395f51905f525f51095f525f516020613b605f395f51905f5280855f516020613b605f395f51905f525f51610764350808820990505f516020613b605f395f51905f525f516020613bc05f395f51905f525f51095f525f516020613b605f395f51905f52815f516020613b605f395f51905f5203830893505050505f516020613b605f395f51905f52805f516020613b605f395f51905f5261126051611240510883095f516020613b605f395f51905f520382089050838185848809089450506110c0516110a051610be435610bc4355f516020613b605f395f51905f5280855f516020613b605f395f51905f5280610aa4358809610784350808830991505f516020613b605f395f51905f5280855f516020613b605f395f51905f5280610ac43588096107a4350808830991505f516020613b605f395f51905f5280855f516020613b605f395f51905f5280610ae43588096107c4350808830991505f516020613b605f395f51905f5280855f516020613b605f395f51905f525f51610784350808820990505f516020613b605f395f51905f525f516020613bc05f395f51905f525f51095f525f516020613b605f395f51905f5280855f516020613b605f395f51905f525f516107a4350808820990505f516020613b605f395f51905f525f516020613bc05f395f51905f525f51095f525f516020613b605f395f51905f5280855f516020613b605f395f51905f525f516107c4350808820990505f516020613b605f395f51905f525f516020613bc05f395f51905f525f51095f525f516020613b605f395f51905f52815f516020613b605f395f51905f5203830893505050505f516020613b605f395f51905f52805f516020613b605f395f51905f5261126051611240510883095f516020613b605f395f51905f520382089050838185848809089450506110c0516110a051610c4435610c24355f516020613b605f395f51905f5280855f516020613b605f395f51905f5280610b043588096107e4350808830991505f516020613b605f395f51905f5280855f516020613b605f395f51905f5280610b24358809610824350808830991505f516020613b605f395f51905f5280855f516020613b605f395f51905f5280610b443588096112a0510808830991505f516020613b605f395f51905f5280855f516020613b605f395f51905f525f516107e4350808820990505f516020613b605f395f51905f525f516020613bc05f395f51905f525f51095f525f516020613b605f395f51905f5280855f516020613b605f395f51905f525f51610824350808820990505f516020613b605f395f51905f525f516020613bc05f395f51905f525f51095f525f516020613b605f395f51905f5280855f516020613b605f395f51905f525f516112a0510808820990505f516020613b605f395f51905f52815f516020613b605f395f51905f5203830893505050505f516020613b605f395f51905f52805f516020613b605f395f51905f5261126051611240510883095f516020613b605f395f51905f52038208905083818584880908945050611280515f516020613b605f395f51905f52610c64358209905083818584880908945050611240515f516020613b605f395f51905f52610c64358209905083818584880908611080516110a05191965091506108443580610864355f516020613b605f395f51905f52818187850908925050505f516020613b605f395f51905f5282820890505f6108c43560015f516020613b605f395f51905f528183099150610744355f516020613b605f395f51905f528184099050825f516020613b605f395f51905f52035f516020613b605f395f51905f528184089250505f516020613b005f395f51905f525f516020613b605f395f51905f5281840990505f516020613b605f395f51905f528183089150506107c4355f516020613b605f395f51905f528185099350505f516020613b405f395f51905f525f516020613b605f395f51905f528184099250505f516020613b605f395f51905f52828408925080935050505f516020613b605f395f51905f52815f516020613b605f395f51905f52878509089150505f516020613b605f395f51905f528382085f945091925082919050805f516020613b605f395f51905f528082610ca435095f516020613b605f395f51905f5203850893505f516020613b605f395f51905f5280610c64355f516020613b605f395f51905f5203610c8435085f516020613b605f395f51905f528386090994505050505f516020613b605f395f51905f5280825f516020613b605f395f51905f520384085f516020613b605f395f51905f52806112405161126051085f516020613b605f395f51905f52036001080991505083818584880908945050611280515f516020613b605f395f51905f52610cc4358209905083818584880908945050611240515f516020613b605f395f51905f52610cc4358209905083818584880908611080516110a05191965091506108443580610864355f516020613b605f395f51905f52818187850908925050505f516020613b605f395f51905f5282820890505f6108e43560015f516020613b605f395f51905f528183099150610764355f516020613b605f395f51905f528184099050825f516020613b605f395f51905f52035f516020613b605f395f51905f528184089250505f516020613b005f395f51905f525f516020613b605f395f51905f5281840990505f516020613b605f395f51905f528183089150506107e4355f516020613b605f395f51905f528185099350505f516020613b405f395f51905f525f516020613b605f395f51905f528184099250505f516020613b605f395f51905f52828408925080935050505f516020613b605f395f51905f52815f516020613b605f395f51905f52878509089150505f516020613b605f395f51905f528382085f945091925082919050805f516020613b605f395f51905f528082610d0435095f516020613b605f395f51905f5203850893505f516020613b605f395f51905f5280610cc4355f516020613b605f395f51905f5203610ce435085f516020613b605f395f51905f528386090994505050505f516020613b605f395f51905f5280825f516020613b605f395f51905f520384085f516020613b605f395f51905f52806112405161126051085f516020613b605f395f51905f52036001080991505083818584880908945050611280515f516020613b605f395f51905f52610d24358209905083818584880908945050611240515f516020613b605f395f51905f52610d243582099050838185848809086110a0519095509050610884355f516020613b605f395f51905f5282820890505f6109043560015f516020613b605f395f51905f528183099150610744355f516020613b605f395f51905f528184099050825f516020613b605f395f51905f520392505f516020613b605f395f51905f5283830892505f91505f516020613b605f395f51905f5282840992505f516020613b605f395f51905f5283820892505050809150505f516020613b605f395f51905f528382085f9350905081815f516020613b605f395f51905f528082610d6435095f516020613b605f395f51905f5203830891505f516020613b605f395f51905f5280610d24355f516020613b605f395f51905f5203610d4435085f516020613b605f395f51905f52838709099450505f516020613b605f395f51905f5280825f516020613b605f395f51905f520386085f516020613b605f395f51905f52806112405161126051085f516020613b605f395f51905f520360010809935050505083818584880908945050611280515f516020613b605f395f51905f52610d84358209905083818584880908945050611240515f516020613b605f395f51905f52610d843582099050838185848809086110a0519095509050610884355f516020613b605f395f51905f5282820890505f6109243560015f516020613b605f395f51905f528183099150610764355f516020613b605f395f51905f528184099050825f516020613b605f395f51905f520392505f516020613b605f395f51905f5283830892505f91505f516020613b605f395f51905f5282840992505f516020613b605f395f51905f5283820892505050809150505f516020613b605f395f51905f528382085f9350905081815f516020613b605f395f51905f528082610dc435095f516020613b605f395f51905f5203830891505f516020613b605f395f51905f5280610d84355f516020613b605f395f51905f5203610da435085f516020613b605f395f51905f52838709099450505f516020613b605f395f51905f5280825f516020613b605f395f51905f520386085f516020613b605f395f51905f52806112405161126051085f516020613b605f395f51905f520360010809935050505083818584880908945050611280515f516020613b605f395f51905f52610de4358209905083818584880908945050611240515f516020613b605f395f51905f52610de43582099050838185848809086110a05190955090506108a4355f516020613b605f395f51905f5282820890505f6109443560015f516020613b605f395f51905f528183099150610744355f516020613b605f395f51905f528184099050825f516020613b605f395f51905f520392505f516020613b605f395f51905f5283830892505f516020613b805f395f51905f5291505f516020613b605f395f51905f5282840992505f516020613b605f395f51905f5283820892505050809150505f516020613b605f395f51905f528382085f9350905081815f516020613b605f395f51905f528082610e2435095f516020613b605f395f51905f5203830891505f516020613b605f395f51905f5280610de4355f516020613b605f395f51905f5203610e0435085f516020613b605f395f51905f52838709099450505f516020613b605f395f51905f5280825f516020613b605f395f51905f520386085f516020613b605f395f51905f52806112405161126051085f516020613b605f395f51905f520360010809935050505083818584880908945050611280515f516020613b605f395f51905f52610e44358209905083818584880908945050611240515f516020613b605f395f51905f52610e443582099050838185848809086110a05190955090506108a4355f516020613b605f395f51905f5282820890505f6109643560015f516020613b605f395f51905f528183099150610764355f516020613b605f395f51905f528184099050825f516020613b605f395f51905f520392505f516020613b605f395f51905f5283830892505f516020613b805f395f51905f5291505f516020613b605f395f51905f5282840992505f516020613b605f395f51905f5283820892505050809150505f516020613b605f395f51905f528382085f9350905081815f516020613b605f395f51905f528082610e8435095f516020613b605f395f51905f5203830891505f516020613b605f395f51905f5280610e44355f516020613b605f395f51905f5203610e6435085f516020613b605f395f51905f52838709099450505f516020613b605f395f51905f5280825f516020613b605f395f51905f520386085f516020613b605f395f51905f52806112405161126051085f516020613b605f395f51905f52036001080993505050508381858488090894505050816112205184096112c0526106e4355f52610704356020526112005192506106a46105e45b81811015612b7e57612b5f8584610212565b9250612b7160208301358335856101f5565b9250604082039150612b4d565b50505f516112e0526020516113005261110051925061082051610840515f516020613b605f395f51905f528286099150816103605284610340525f516020613b605f395f51905f52818609915081610320525f516020613b605f395f51905f5281830991505f516020613b605f395f51905f5281830991505f516020613b605f395f51905f5281830991505f516020613b605f395f51905f5281830991505f516020613b605f395f51905f528183099150508061030052506111605192506103806104006103005b81831015612c7d575f516020613b605f395f51905f5281515f516020613b605f395f51905f52038708835260209283019201612c46565b50506103c0516104005250610380516103a0519093505f516020613b605f395f51905f5290840992505f516020613b605f395f51905f526103e051840992508261042052825f526103805192505f516020613b605f395f51905f526103e0518409610440526103a0516104608190526103805193505f516020613b605f395f51905f52908409610480526103c051600193505f516020613b605f395f51905f5290840960205261032051610340519093505f5f516020613b605f395f51905f52828103860890505f516020613b605f395f51905f526103a05182099050806040525f516020613b605f395f51905f52855f516020613b605f395f51905f5203830890505f516020613b605f395f51905f526103c05182096060525050610300516103405161036051919450905f5f516020613b605f395f51905f52838103870890505f516020613b605f395f51905f5280835f516020613b605f395f51905f52038808820990505f516020613b605f395f51905f526103805182099050806080525f516020613b605f395f51905f52865f516020613b605f395f51905f5203840890505f516020613b605f395f51905f5280835f516020613b605f395f51905f52038508820990505f516020613b605f395f51905f526103c051820990508060a0525f516020613b605f395f51905f52865f516020613b605f395f51905f5203830890505f516020613b605f395f51905f5280845f516020613b605f395f51905f52038408820990505f516020613b605f395f51905f526103e051820960c0525050610340516103605190945090505f5f516020613b605f395f51905f52828103860890505f516020613b605f395f51905f526103c051820990508060e0525f516020613b605f395f51905f52855f516020613b605f395f51905f5203830890505f516020613b605f395f51905f526103e05182096101005250612f4690506101205f836100d1565b90505f51925082610420526104406104a05b80821015612f7f575f516020613b605f395f51905f52858351098252602082019150612f58565b50506020519250611120515f5f516020613b605f395f51905f5280610a24358709820890505f516020613b605f395f51905f5282820990505f516020613b605f395f51905f52806112c051870982089050610b44610a245b81811015613011575f516020613b605f395f51905f5280833589095f516020613b605f395f51905f52868609089250602082039150612fd7565b5050610a046108045b81811015613054575f516020613b605f395f51905f5280833589095f516020613b605f395f51905f5286860908925060208203915061301a565b50505f516020613b605f395f51905f5282820990505f516020613b605f395f51905f5280610e84358709820890505f516020613b605f395f51905f5282820990505f516020613b605f395f51905f5280610e24358709820890505f516020613b605f395f51905f5282820990505f516020613b605f395f51905f5280610dc4358709820890505f516020613b605f395f51905f5282820990505f516020613b605f395f51905f5280610d64358709820890505f516020613b605f395f51905f5282820990505f516020613b605f395f51905f5280610d04358709820890505f516020613b605f395f51905f5282820990505f516020613b605f395f51905f5280610ca4358709820890505f516020613b605f395f51905f5282820990505f516020613b605f395f51905f52806107e4358709820890506107a46107045b818110156131cb575f516020613b605f395f51905f5280833589095f516020613b605f395f51905f52868609089250602082039150613191565b50506104a052506040515f93505f516020613b605f395f51905f52908190610804359009840892505f516020613b605f395f51905f52806107c43560605109840892505f516020613b605f395f51905f526104405184099250826104c0526111205192505f5f516020613b605f395f51905f5280610c043560805109820890505f516020613b605f395f51905f5280610bc43560a05109820890505f516020613b605f395f51905f5280610be43560c05109820890505f516020613b605f395f51905f5284820990505f516020613b605f395f51905f5280610ba43560805109820890505f516020613b605f395f51905f5280610b643560a05109820890505f516020613b605f395f51905f5280610b843560c05109820890505f516020613b605f395f51905f526104605182099050806104e052506111205192505f5f516020613b605f395f51905f5280610e443560e05109820890505f516020613b605f395f51905f5280610e64356101005109820890505f516020613b605f395f51905f5284820990505f516020613b605f395f51905f5280610de43560e05109820890505f516020613b605f395f51905f5280610e04356101005109820890505f516020613b605f395f51905f5284820990505f516020613b605f395f51905f5280610d843560e05109820890505f516020613b605f395f51905f5280610da4356101005109820890505f516020613b605f395f51905f5284820990505f516020613b605f395f51905f5280610d243560e05109820890505f516020613b605f395f51905f5280610d44356101005109820890505f516020613b605f395f51905f5284820990505f516020613b605f395f51905f5280610cc43560e05109820890505f516020613b605f395f51905f5280610ce4356101005109820890505f516020613b605f395f51905f5284820990505f516020613b605f395f51905f5280610c643560e05109820890505f516020613b605f395f51905f5280610c84356101005109820890505f516020613b605f395f51905f5284820990505f516020613b605f395f51905f5280610c243560e05109820890505f516020613b605f395f51905f5280610c44356101005109820890505f516020613b605f395f51905f526104805182096105005250602051610520526040516060519093505f516020613b605f395f51905f529084086105405260805160a0519093505f516020613b605f395f51905f5290840892505f516020613b605f395f51905f5260c05184086105605260e051610100519093505f516020613b605f395f51905f52908408610580525f925060806105205b818510156135ac578051855260209485019401613594565b50506135ba60805f836100d1565b90505f516020613b605f395f51905f5261050051606051099250604060806104e05b8183101561361f575f516020613b605f395f51905f5261114051870995505f516020613b605f395f51905f5280825185510987089550601f1992830192016135dc565b50505082611320526111405192506105e4355f52610604356020526136476111205182610212565b905061365a611300516112e051836101f5565b9050611040610a005b81811015613697576136786111205184610212565b925061368a60208301518351856101f5565b9250604082039150613663565b50506103646101a45b818110156136d4576136b56111205184610212565b92506136c760208301358335856101f5565b92506040820391506136a0565b505061016460245b81811015613710576136f16111205184610212565b925061370360208301358335856101f5565b92506040820391506136dc565b50506101a4356080526101c43560a05261373d5f516020613b605f395f51905f5261044051850982610248565b905061374e60a051608051836101f5565b90505f516020613b605f395f51905f5261114051840992506103e4356080526104043560a0526137816111205182610248565b90506137946103c4356103a4358361022a565b90506137b35f516020613b605f395f51905f5261046051850982610248565b90506137c460a051608051836101f5565b90505f516020613b605f395f51905f5261114051840992506105a4356080526105c43560a0526105646103e45b81811015613825576138066111205184610248565b9250613818602083013583358561022a565b92506040820391506137f1565b50506138445f516020613b605f395f51905f5261048051850982610248565b905061385560a051608051836101f5565b9050610900516080526109205160a052613881611320515f516020613b605f395f51905f520382610248565b905061389260a051608051836101f5565b9050610ea435608052610ec43560a0526138be610400515f516020613b605f395f51905f520382610248565b90506138cf60a051608051836101f5565b9050610ee435608052610f043560a0526138ec6111605182610248565b90506138fd60a051608051836101f5565b90505f516113405260205161136052610ee43561138052610f04356113a05261088051156139cb57611180515f526111a0516020526111c0516040526111e051606052611340516080526113605160a0526113805160c0526113a05160e052816101005f2006925061396f8382610212565b90506139826113605161134051836101f5565b90505f5161134052602051611360526111c0515f526111e0516020526139a88382610212565b90506139bb6113a05161138051836101f5565b90505f51611380526020516113a0525b6139e46113a05161138051611360516113405185610262565b9050806139ef575f5ffd5b50505060015f5260205ff35b5f5f5f5f60408587031215613a0e575f5ffd5b84356001600160401b03811115613a23575f5ffd5b8501601f81018713613a33575f5ffd5b80356001600160401b03811115613a48575f5ffd5b876020828401011115613a59575f5ffd5b6020918201955093508501356001600160401b03811115613a78575f5ffd5b8501601f81018713613a88575f5ffd5b80356001600160401b03811115613a9d575f5ffd5b8760208260051b8401011115613ab1575f5ffd5b94979396506020019450505056fe04abbd95d755534ad5bccac7823b7bb5784127ee784edaebb4e57f47e806f93619dfcdb46cf9b660cadbca98681f3f44b21f873a92bb6b98810efd4898c51fdf30644e72e131a029b85045b68181585d2833e84879b9709143e1f593efff9d691967394082020455a658f1f90cf8554a35a42cff8a1520ba1389f04a2201d3d730644e72e131a029b85045b68181585d2833e84879b9709143e1f593efffe02330644e72e131a029b85045b68181585d2833e84879b9709143e1f593f000000130644e72e131a029b85045b68181585d2833e84879b9709143e1f593f00000000077671293c536f685c08fdc5f84e752c2387a080f09821941524c8b818a537e09226b6e22c6f0ca64ec26aad4c86e715b5f898e5e963f25870e56bbe533e9a20ae4dad709d39d345969617fb0f407061c16d7ade3ebf765b28cb213816ab73f06feaddae4046d702db8fb9a106b315f7e7dec0c47c0cde4c6ce0e0f325a820b2591410ed4336c8cfcaa7bca75cd124a9593a26245afeba8ccf8cccfc5c4fffba26469706673582212201dff0dfe54d0d10d507909858778658ee3ddf4cba19a54250c04acd57258914a64736f6c634300081c0033","linkReferences":{}},"methodIdentifiers":{"verifyProof(bytes,uint256[])":"1e8e1e13"},"id":17}